:100B5A00576972656C657373004E6F7469636520BB
:100B6A00426F61726400415400415445300041545F
:100B7A002B434D47463D310041542B434D47443D9D
:0C0B8A00310041542B434D47523D3100D7
:080C2F0002350000023700004D
:10080000C290758920759850758DFDD28E7F327E8D
:1008100000120B9C7F38120C167F0C120C167F01F5
:10082000120C167F80120C167BFF7A0B795A120974
:10083000737FC2120C167BFF7A0B79631209737BEC
:10084000FF7A0B7970120C03120C257F327E001296
:100850000B9C7BFF7A0B7973120C03120C257F32F1
:100860007E00120B9C7BFF7A0B7978120C03120C22
:10087000257F327E00120B9C7BFF7A0B7982120C53
:1008800003120C257F327E00120B9CE4F50AF50B57
:10089000F534120C408F0AE50AB42BF67FF47E0182
:1008A000120B9C120BBC7BFF7A0B798C120C03127F
:1008B0000C257F027E00120B9C120C408F0AE50A69
:1008C000B42AF6120C408F0BAF340534740C2FF899
:1008D000A60BE50BB423EC1534740C2534F8E4F6C0
:1008E000FB7A00790C120BEE8F3B7F01120C16D3B2
:1008F000E53B6480949040477F80120C167F0A7E0F
:1009000000120B9CE4F50A120BD8050AC3E50A6431
:1009100080949040F27FC0120C167F0A7E00120B6A
:100920009C750A10C3E53B6480F8E50A6480985022
:1009300038120BD87F0A7E00120B9C050A80E57FD7
:1009400080120C167F0A7E00120B9CE4F50AC3E5A8
:100950003B6480F8E50A648098500E120BD87F0A39
:100960007E00120B9C050A80E57F1E7E00120B9C08
:0309700002087802
:080C38008F993099FDC2992249
:070C40003098FDAF99C29846
:010C4700228A
:100C0300120B14FF600C120C38740129F9E43AFA40
:030C130080EE224E
:0A0C25007F0D120C387F0A020C3814
:100BBC00120B96C290120B98120B96C290120B98B5
:0C0BCC00120B96C2907F147E00020B9C5E
:0F0C16008F80C290D291C2917F017E00020B9C11
:070BD800740C250AF8E6FF8A
:0F0BDF008F80D290D291C2917F017E00020B9C39
:060973008B3C8A3D893E29
:10097900120BEE8E418F427F80120C167F647E002F
:10098900120B9C7F01120C167F647E00120B9CAB2C
:100999003CAA3DA93E120BEEC3EF9410EE6480947D
:1009A90080502EE4F53FF540AB3CAA3DA93E854079
:1009B90082853F83120B2DFF7003020A87120BDF1A
:1009C9007F647E00120B9C0540E54070DB053F808B
:1009D900D7E4F53FF540AB3CAA3DA93E8540828569
:1009E9003F83120B2DFF120BDF7F647E00120B9CDD
:1009F9000540E5407002053FC39410E53F648094CB
:100A09008040D3753F00754001754100754210ABB8
:100A19003CAA3DA93E854282854183120B2D605E29
:100A29007F80120C167F01120C16853F43854044C6
:100A3900D3E5449542E5416480F8E54364809850E4
:100A490024AB3CAA3DA93E854482854383120B2DE4
:100A5900FF120BDF7F647E00120B9C0544E5447096
:100A6900CF054380CB7F147E05120B9C0540E540E2
:0E0A79007002053F0542E542709505418091EF
:010A8700224C
:060B9600D2907F147E00E6
:100B9C00E4FDFCC3ED9FEC9E5015E4FBFA0BBB008F
:0F0BAC00010ABA04F8BBFBF50DBD00010C80E493
:010BBB002217
:03000000020A8869
:0C0A8800787FE4F6D8FD758144020ACFA7
:100B1400BB010689828A83E0225002E722BBFE02DF
:090B2400E32289828A83E4932212
:100B2D00BB010CE58229F582E5833AF583E022507D
:100B3D0006E92582F8E622BBFE06E92582F8E222C7
:0D0B4D00E58229F582E5833AF583E49322E1
:100BEE00E4FFFE120B14600C0FEF70010E09E9709A
:050BFE00F20A80EF2265
:100A9400020800E493A3F8E493A34003F68001F270
:100AA40008DFF48029E493A3F85407240CC8C33363
:100AB400C4540F4420C8834004F456800146F6DF32
:100AC400E4800B0102040810204080900C2FE47E87
:100AD400019360BCA3FF543F30E509541FFEE49327
:100AE400A360010ECF54C025E060A840B8E493A3EE
:100AF400FAE493A3F8E493A3C8C582C8CAC583CA19
:100B0400F0A3C8C582C8CAC583CADFE9DEE780BED0
:010C370000BC
:00000001FF
